:100000000C942A000C9447000C9447000C94470071
:100010000C9447000C9423040C9447000C94470064
:100020000C9447000C9447000C9447000C94470034
:100030000C9447000C9447000C9447000C94470024
:100040000C9447000C9447000C9447000C94470014
:100050000C94470011241FBECFE5D8E0DEBFCDBF12
:1000600010E0A0E6B0E0EAE7FCE002C005900D92E7
:10007000A23CB107D9F720E0A2ECB0E001C01D928C
:10008000A83CB207E1F70E9406020C943B060C94D0
:1000900000006FEF0E9471050895CF93DF93CDB7F5
:1000A000DEB72A970FB6F894DEBF0FBECDBF9AE039
:1000B000E0E6F0E0DE01119601900D929A95E1F7ED
:1000C000E1E0F0E0EC0FFD1FE60FF11D60810E9402
:1000D00084052A960FB6F894DEBF0FBECDBFDF9120
:1000E000CF91089541E060E084E40E94340441E04F
:1000F00061E084E40E94340441E062E084E40E9410
:10010000340441E063E084E40E94340440E064E0AD
:1001100084E40E94340440E065E084E40E943404F6
:1001200040E066E084E40E94340440E067E084E458
:100130000E94340441E064E084E40E94970541E0B9
:1001400065E084E40E94970541E066E084E40E9453
:10015000970541E067E084E40E9497050895FF92C7
:100160000F931F93CF93DF93CDB7DEB760970FB692
:10017000F894DEBF0FBECDBF80E1EAE6F0E0DE011D
:10018000119601900D928A95E1F7FF24FA9400E010
:100190003CC041E060E084E40E94A40441E061E0EE
:1001A00084E40E94A40441E062E084E40E94A40488
:1001B00041E063E084E40E94A40487E893E10197AE
:1001C000F1F700C0000040E0602F84E40E94A40426
:1001D00010E018C064E0610F84E40E9414058111EE
:1001E00010C0E02FF0E0EE0FFF1FEE0FFF1F81E0C9
:1001F00090E08C0F9D1FE80FF91FE10FF11DF080BB
:1002000003C01F5F143030F30F5F043010F28F2DE6
:1002100060960FB6F894DEBF0FBECDBFDF91CF91D1
:100220001F910F91FF90089541E060E081E40E94EA
:10023000A4048FE99FE00197F1F700C0000040E0BF
:1002400060E081E40E94A4048FE99FE00197F1F748
:1002500000C000000895CF93C82F682F62956F707B
:1002600081E40E94070640E062E081E40E94A40469
:100270000E9414016C2F81E40E94070640E062E0B6
:1002800081E40E94A4040E9414018FEC97E001977E
:10029000F1F700C00000CF9108952FEF81EE94E0B8
:1002A000215080409040E1F700C0000041E064E050
:1002B00081E40E94340441E065E081E40E9434045A
:1002C00041E066E081E40E94340441E067E081E4BB
:1002D0000E94340441E060E081E40E94340441E083
:1002E00061E081E40E94340441E062E081E40E9424
:1002F000340440E061E081E40E94A40482E00E94B2
:100300002B018FE19EE40197F1F700C0000088E225
:100310000E942B018FEC97E00197F1F700C00000DD
:100320008EE00E942B018FEC97E00197F1F700C05F
:10033000000081E00E942B018FE19EE40197F1F71C
:1003400000C0000086E00E942B018FEC97E001972F
:10035000F1F700C000000895CF93C82F682F629571
:100360006F7081E40E94070641E062E081E40E9430
:10037000A4040E9414016C2F81E40E94070641E04E
:1003800062E081E40E94A4040E9414018FEC97E0D3
:100390000197F1F700C00000CF910895CF93DF934C
:1003A000EC0103C00E94AC01219688818111FACF33
:1003B000DF91CF91089581E00E942B018FE19EE4AF
:1003C0000197F1F700C0000008959FEF980F923059
:1003D00070F4613170F4662371F0813019F42FE705
:1003E000260F0AC0823041F42FEB260F05C020E80B
:1003F00003C020E801C020E8822F0E942B018FEC6F
:1004000097E00197F1F700C0000008950E944D01A8
:100410000E94720082E40E9449000E942D0684B36B
:10042000816084BB84B3826084BB84B3846084BBFA
:1004300084B3886084BB84B3806184BB84B38062EE
:1004400084BB8AE790E00E94CE0161E082E00E94D6
:10045000E50188E890E00E94CE010E94AF00809301
:10046000C7008F3F09F4EFC0813409F0CFC00E946C
:10047000DB0187E990E00E94CE0167E081E00E9405
:10048000E5012FEF84E39CE0215080409040E1F7AC
:1004900000C000000E94AF008093C5008F3FD1F3E1
:1004A0000E94AC012FEF82E597E021508040904000
:1004B000E1F700C000000E94AF008093C6008F3FAC
:1004C000D1F30E94AC012FEF82E597E021508040EC
:1004D0009040E1F700C000008091C50090E0C09717
:1004E000880F982F990F990F890F9091C600890F47
:1004F00080538093C2000E94DB0180EA90E00E945A
:10050000CE0169E081E00E94E5012FEF82E597E0EE
:10051000215080409040E1F700C000000E94AF00F1
:100520008093C5008F3FD1F30E94AC012FEF82E58D
:1005300097E0215080409040E1F700C000000E9409
:10054000AF008093C6008F3FD1F30E94AC012FEF24
:1005500082E597E0215080409040E1F700C0000024
:100560008091C50090E0C097880F982F990F990F40
:10057000890F9091C600890F80538093C3000E9419
:10058000DB018BEA90E00E94CE0168E081E00E94EE
:10059000E5012FEF82E597E0215080409040E1F7A0
:1005A00000C000000E94AF008093C5008F3FD1F3D0
:1005B0000E94AC012FEF81EE94E0215080409040EA
:1005C000E1F700C000000E94AF008093C6008F3F9B
:1005D000D1F30E94AC012FEF81EE94E021508040D6
:1005E0009040E1F700C000008091C50090E0C09706
:1005F000880F982F990F990F890F9091C600890F36
:1006000080538093C4000E94DB011DC00E94DB0167
:1006100085EB90E00E94CE012FEF89E698E1215012
:1006200080409040E1F700C000000E94DB018AE7B3
:1006300090E00E94CE0161E082E00E94E50188E83E
:1006400090E00E94CE0185B3826085BB85B3846053
:1006500085BB85B3886085BB85B3806185BB85B369
:10066000806285BB85B38E7F85BB6091C400CDEC75
:100670006C9F812D1124869586958695880F982FDD
:10068000990F990F890F681B82E40E944D008FE03B
:1006900097E20197F1F700C0000085B3816085BB48
:1006A00085B3846085BB85B3886085BB85B3806175
:1006B00085BB85B3806285BB85B38D7F85BB60912B
:1006C000C4006C9F612D112466956695669582E441
:1006D0000E944D008FE097E20197F1F700C0000003
:1006E00085B3826085BB85B3816085BB85B3886037
:1006F00085BB85B3806185BB85B3806285BB85B3CF
:100700008B7F85BB6091C3006C9F812D11248695E2
:1007100086958695880F982F990F990F890F681BDA
:1007200082E40E944D008FE097E20197F1F700C04C
:10073000000085B3826085BB85B3846085BB85B3CB
:10074000816085BB85B3806185BB85B3806285BBD5
:1007500085B3877F85BB6091C3006C9F612D112499
:1007600066956695669582E40E944D008FE097E25B
:100770000197F1F700C0000085B3826085BB85B3A7
:10078000846085BB85B3886085BB85B3816085BB8C
:1007900085B3806285BB85B38F7E85BB6091C200C7
:1007A0006C9F812D1124869586958695880F982FAC
:1007B000990F990F890F681B82E40E944D008FE00A
:1007C00097E20197F1F700C0000085B3826085BB16
:1007D00085B3846085BB85B3886085BB85B3806144
:1007E00085BB85B3816085BB85B38F7D85BB6091FB
:1007F000C2006C9F612D112466956695669582E412
:100800000E944D008FE097E20197F1F700C00000D1
:100810008CE38093C4001092C4008091C3008F5F6A
:100820008093C3008C3338F01092C3008091C200D3
:100830008F5F8093C2008091C200883109F00DCE95
:100840001092C2000ACE1F920F920FB60F9211247F
:100850008F938091C4008F5F8093C4008F910F901D
:100860000FBE0F901F901895823419F118F481343F
:1008700039F008958334B1F1843409F44CC00895FB
:10088000413059F42AB381E090E002C0880F991FEB
:100890006A95E2F7822B8ABB08952AB381E090E043
:1008A00002C0880F991F6A95E2F7809582238ABB60
:1008B0000895413059F427B381E090E002C0880FD9
:1008C000991F6A95E2F7822B87BB089527B381E0D1
:1008D00090E002C0880F991F6A95E2F78095822305
:1008E00087BB0895413059F424B381E090E002C001
:1008F000880F991F6A95E2F7822B84BB089524B371
:1009000081E090E002C0880F991F6A95E2F7809518
:10091000822384BB0895413059F421B381E090E0F3
:1009200002C0880F991F6A95E2F7822B81BB089558
:1009300021B381E090E002C0880F991F6A95E2F729
:100940008095822381BB0895823419F118F4813493
:1009500039F008958334B1F1843409F44CC008951A
:10096000413059F42BB381E090E002C0880F991F09
:100970006A95E2F7822B8BBB08952BB381E090E060
:1009800002C0880F991F6A95E2F7809582238BBB7E
:100990000895413059F428B381E090E002C0880FF7
:1009A000991F6A95E2F7822B88BB089528B381E0EE
:1009B00090E002C0880F991F6A95E2F78095822324
:1009C00088BB0895413059F425B381E090E002C01E
:1009D000880F991F6A95E2F7822B85BB089525B38E
:1009E00081E090E002C0880F991F6A95E2F7809538
:1009F000822385BB0895413059F422B381E090E011
:100A000002C0880F991F6A95E2F7822B82BB089576
:100A100022B381E090E002C0880F991F6A95E2F747
:100A20008095822382BB08958234E9F018F48134E2
:100A300031F055C0833459F18434E9F150C049B3E1
:100A400081E090E09C01062E02C0220F331F0A9421
:100A5000E2F7842F90E08223932302C09595879537
:100A60006A95E2F7089546B381E090E09C01062E76
:100A700002C0220F331F0A94E2F7842F90E08223F2
:100A8000932302C0959587956A95E2F7089543B33D
:100A900081E090E09C01062E02C0220F331F0A94D1
:100AA000E2F7842F90E08223932302C095958795E7
:100AB0006A95E2F7089540B381E090E09C01062E2C
:100AC00002C0220F331F0A94E2F7842F90E08223A2
:100AD000932302C0959587956A95E2F7089580E083
:100AE0000895823459F018F4813431F00895833434
:100AF00039F0843439F008956ABB089567BB0895CE
:100B000064BB089561BB0895823459F018F48134B0
:100B100031F00895833439F0843439F008956BBB93
:100B2000089568BB089565BB089562BB089582343B
:100B300019F118F4813439F008958334B1F1843413
:100B400009F44CC00895413059F42BB381E090E092
:100B500002C0880F991F6A95E2F7822B8BBB08951C
:100B60002BB381E090E002C0880F991F6A95E2F7ED
:100B7000809582238BBB0895413059F428B381E0DE
:100B800090E002C0880F991F6A95E2F7822B88BB1C
:100B9000089528B381E090E002C0880F991F6A95FC
:100BA000E2F78095822388BB0895413059F425B33C
:100BB00081E090E002C0880F991F6A95E2F7822BCE
:100BC00085BB089525B381E090E002C0880F991F8E
:100BD0006A95E2F78095822385BB0895413059F4E8
:100BE00022B381E090E002C0880F991F6A95E2F776
:100BF000822B82BB089522B381E090E002C0880F6F
:100C0000991F6A95E2F78095822382BB08956295C9
:100C1000607F823479F018F4813431F008958334A0
:100C200079F0843499F008958BB38F708BBB8BB3BC
:100C3000862B8BBB88B38F7088BB88B3862B88BB11
:100C400085B38F7085BB85B3862B85BB82B38F70D0
:100C500082BB82B3682B62BB089582B5886082BD77
:100C600085B5816085BD85B5846085BD789489B77B
:0A0C7000806489BF0895F894FFCF57
:100C7A003F065B4F666D7D477F6F3738392F3435B6
:100C8A00362A3132332D41303D2B70726573732011
:100C9A004F4E2F4320746F0073657420796F7572FD
:100CAA0020636C6F636B00686F7572733D2D2D0046
:100CBA006D696E757465733D2D2D005365636F6E96
:100CCA00643D2D2D0057726F6E6720496E707574E2
:020CDA00000018
:00000001FF
